S0180000426F6F746C6F616465722D536C6176652E73726563D9
S11370000C9435380C9452380C9452380C945238F1
S11370100C9452380C9452380C94673B0C945238AC
S11370200C9452380C9452380C9452380C945238B4
S11370300C9452380C94F4390C9452380C94223A2F
S11370400C9452380C9452380C9452380C94523894
S11370500C9452384C3B4E3B603B503B523B543BB0
S1137060563B583B5A3B5C3B5E3B11241FBECFE56D
S1137070D8E0DEBFCDBF10E0A0E6B0E0E4E1F8E781
S113708002C005900D92A036B107D9F721E0A0E621
S1137090B0E001C01D92A83EB207E1F70E94A43BF4
S11370A00C94083C0C9400381BBC1ABC19BC18BCCA
S11370B08FE392E097BD86BD82EA8FBD8CE18EBDE1
S11370C089B7806289BF0895E0916200F0916300FE
S11370D0309709F009940895E3E9F0E080E098E03E
S11370E09E0F2191820F9E13FCCF80939B000895E5
S11370F0CF93DF93EC019093AD008093AC0045E017
S113710050E0BC018CE990E00E94D03B80919C004F
S11371108134A9F082E480939C0084E080939D00F4
S113712086E080939E0010929F0082E08093A000EE
S113713045E050E0BE018CE990E00E94F13BE09113
S11371406000F0916100309719F080919D000995DD
S11371508091A0008093AE0080919E008093A20055
S1137160DF91CF910895E3E9F0E09091AE00908330
S11371709091A200918382838091A400838374837D
S11371806583568347830E946C380C9464389091CD
S1137190A3008091A200981315C0E3EAF0E080E018
S11371A098E09E0F2191820F9E13FCCF9091AB002B
S11371B0891751F040E050E0BA0181E00E94B338F1
S11371C083E0089582E0089580E00895CF92DF92ED
S11371D0EF92FF921F93CF93DF931F92CDB7DEB749
S11371E02091A7006091A800862F90E0A0E0B0E075
S11371F0DC0199278827B22B2091AA00822B2091A9
S1137200A900BC01CD01722B60938F007093900094
S113721080939100909392001091A4001A3009F485
S11372206AC030F4113009F493C0193041F089C0B8
S11372301C3108F48DC01F3F09F48AC082C010912C
S1137240A600112329F040E050E0BA0184E07DC09B
S11372502091A500213421F118F4203431F06CC0C0
S1137260223461F12C34C1F167C0C0909C00D12C50
S1137270E12CF12C6C157D058E059F0569F060935A
S11372809C00198249812091AC003091AD00C90164
S1137290840F911D0E94E03B40E050E0BA0148C0D9
S11372A0C0909D00D12CE12CF12C6C157D058E0530
S11372B09F0591F360939D0021E01BC0C0909E0048
S11372C0D12CE12CF12C6C157D058E059F0521F345
S11372D060939E0022E00DC0C090A000D12CE12C50
S11372E0F12C6C157D058E059F05B1F26093A0000D
S11372F024E02983C7CF1091A6001111A4CF809157
S1137300A500813469F028F48034B1F440919C00E4
S11373100CC0823441F08C3479F44091A00005C053
S113732040919D0002C040919E0050E060E070E0FA
S113733084E60E94B3380CC040E050E0BA0184E017
S1137340F8CF40E050E0BA0182E00E94B33810E088
S1137350812F0F90DF91CF911F91FF90EF90DF90DD
S1137360CF9008958091680090916900891B8F7077
S1137370089590916D0080916E00981761F090913E
S11373806E009F5F9F70E92FF0E0E85BFE4F808105
S113739090936E00089580E0089590916D009F5F32
S11373A09F70E92FF0E0E85BFE4F808390936D00BF
S11373B0089590916C00E92FF0E0E155FF4F808132
S11373C09F5F90936C0008958091650080FD0BC0D1
S11373D080916500816080936500929A10926C00A0
S11373E00E94D9398CB908951F920F920FB60F924B
S11373F011242F933F934F935F936F937F938F93B6
S11374009F93AF93BF93EF93FF9385E080936700BF
S11374108BB190916600892B809366008CB10E9499
S1137420CD39FF91EF91BF91AF919F918F917F9152
S11374306F915F914F913F912F910F900FBE0F90DD
S11374401F9018951F920F920FB60F9211242F932D
S11374503F934F935F936F937F938F939F93AF93D8
S1137460BF93EF93FF938091650080FF0EC08091DE
S11374706C00893038F0809165008E7F80936500C0
S1137480929803C00E94D9398CB9FF91EF91BF91B2
S1137490AF919F918F917F916F915F914F913F91A8
S11374A02F910F900FBE0F901F90189587E089B908
S11374B08AB188618AB9579A569A109266000895DB
S11374C0CF92DF92EF92FF920F931F93CF939091FD
S11374D06A0080916B00981701F18091650080FD2E
S11374E01CC080916B008F5F8F7099E0899FF001C1
S11374F01124E85AFE4F20E030E09191D901A155C2
S1137500BF4F9C932F5F3F4F29303105B1F78093D4
S11375106B0010926C000E94E4398091650083FD39
S11375204BC080916D0090916E00891B8F708930E3
S113753008F442C0C0916800CF5FCF70EC2EF12CEC
S1137540E9E0CE9F8001112408541F4F6801F9E03F
S1137550CF0ED11C0E94B939F80181938F01EC152B
S1137560FD05C1F7F9E0CF9FA001112480E090E070
S113757020E0FC01E40FF51FE854FF4F3081230F96
S1137580019688309105A9F789E08E9DF0018F9DC1
S1137590F00D1124E854FF4F8085281308C0809112
S11375A06500886080936500C093680005C0809181
S11375B06500806180936500CF911F910F91FF90CA
S11375C0EF90DF90CF90089580916700882341F079
S11375D08091670081508093670010926400089541
S11375E080916400811107C080916D0080936E00CA
S11375F081E0809364000895809169008F5F8F70AB
S113760029E0829FC001112488549F4F08958091DE
S113761069008F5F8F70809369000E94B239811175
S113762005C090916500977F909365000895CF936E
S1137630DF93FC0190916A009F5F9F7089E0989F9F
S1137640E001112420E030E040E0692F70E0808107
S1137650D901AC0FBD1FA85ABE4F8C938191480F1E
S11376602F5F3F4F2830310591F789E0869FF00165
S1137670879FF00D1124E85AFE4F408790936A00CB
S1137680DF91CF91089590E08B309105C8F4FC010F
S1137690E65DF74C0C94CA3B8FE513C08FE311C031
S11376A08FE10FC087E10DC08FE00BC08BE009C0F4
S11376B087E007C083E005C082E003C019B80895DD
S11376C08FE289B9089583E990E00C94173B1F92E7
S11376D00F920FB60F9211248F9381E08093700064
S11376E08F910F900FBE0F901F901895809170008E
S11376F0882359F0109270000E94E43A80916F0040
S1137700882319F0815080936F000895809165005B
S113771083FF19C00E94FC3AE3EAF0E029E02E0F4F
S1137720DC013D91CD0131932E13FACF0E94073B2A
S113773080916500877F809365000E94C73881111E
S113774002C00C94E6380895F89481B3866081BB36
S11377508AB3806E8ABB0E9454380E94563A83E4EE
S11377609BE3909361008093600083E69BE3909396
S113777063008093620080E190E00E9478387894FE
S11377800E94763B0E94603A0E94863B8BB3806ED7
S11377908BBBF6CFEE0FFF1F0590F491E02D0994FB
S11377A0DC01CB01FC01E199FECF06C0FFBBEEBBBF
S11377B0E09A31960DB20D9241505040B8F70895B9
S11377C0262FE199FECF9FBB8EBBE09A01970DB2A5
S11377D0021631F02DBB0FB6F894E29AE19A0FBE6F
S11377E00895DC01CB0103C02D910E94FC3B415064
S11377F05040D0F70895262FE199FECF9FBB8EBB52
S11378002DBB0FB6F894E29AE19A0FBE0196089543
S1077810F894FFCF16
S90370008C
