S0180000426F6F746C6F616465722D536C6176652E73726563D9
S11300000C9435000C9452000C9452000C94520041
S11300100C9452000C9452000C943F030C94520024
S11300200C9452000C9452000C9452000C94520004
S11300300C9452000C94E4010C9452000C9412029F
S11300400C9452000C9452000C9452000C945200E4
S11300500C94520024032603380328032A032C0398
S11300602E03300332033403360311241FBECFE5BD
S1130070D8E0DEBFCDBF10E0A0E6B0E0EEEAF7E0E6
S113008002C005900D92A036B107D9F721E0A0E691
S1130090B0E001C01D92A63EB207E1F70E947503CD
S11300A00C94D5030C940000E0916200F09163007D
S11300B0309709F009940895E1E9F0E080E098E0D0
S11300C09E0F2191820F9E13FCCF80939900089577
S11300D0CF93DF93EC019093AB008093AA0045E0AB
S11300E050E0BC018AE990E00E949D0380919A004F
S11300F08134A9F082E480939A0084E080939B0089
S113010086E080939C0010929D0082E080939E0084
S113011045E050E0BE018AE990E00E94BE03E09110
S11301206000F0916100309719F080919B0009956F
S113013080919E008093AC0080919C008093A000ED
S1130140DF91CF910895E1E9F0E09091AC009083C4
S11301509091A000918382838091A2008383748311
S11301606583568347830E945C000C9454009091ED
S1130170A1008091A000981315C0E1EAF0E080E0AE
S113018098E09E0F2191820F9E13FCCF9091A900BD
S1130190891751F040E050E0BA0181E00E94A300C9
S11301A083E0089582E0089580E00895CF92DF927D
S11301B0EF92FF921F93CF93DF931F92CDB7DEB7D9
S11301C02091A5006091A600862F90E0A0E0B0E009
S11301D0DC0199278827B22B2091A800822B20913B
S11301E0A700BC01CD01722B60938D0070938E002B
S11301F080938F00909390001091A2001A3009F41C
S11302006AC030F4113009F493C0193041F089C048
S11302101C3108F48DC01F3F09F48AC082C01091BC
S1130220A400112329F040E050E0BA0184E07DC02D
S11302302091A300213421F118F4203431F06CC052
S1130240223461F12C34C1F167C0C0909A00D12CE2
S1130250E12CF12C6C157D058E059F0569F06093EA
S11302609A00198249812091AA003091AB00C901FA
S1130270840F911D0E94AD0340E050E0BA0148C0D4
S1130280C0909B00D12CE12CF12C6C157D058E05C2
S11302909F0591F360939B0021E01BC0C0909C00DC
S11302A0D12CE12CF12C6C157D058E059F0521F3D5
S11302B060939C0022E00DC0C0909E00D12CE12CE4
S11302C0F12C6C157D058E059F05B1F260939E009F
S11302D024E02983C7CF1091A4001111A4CF8091E9
S11302E0A300813469F028F48034B1F440919A0079
S11302F00CC0823441F08C3479F440919E0005C0E6
S113030040919B0002C040919C0050E060E070E08E
S113031084E60E94A3000CC040E050E0BA0184E0EF
S1130320F8CF40E050E0BA0182E00E94A30010E060
S1130330812F0F90DF91CF911F91FF90EF90DF906D
S1130340CF9008958091670090916800891B8F7009
S1130350089590916C0080916D00981761F09091D0
S11303606D009F5F9F70E92FF0E0EA5BFE4F808194
S113037090936D00089580E0089590916C009F5FC4
S11303809F70E92FF0E0EA5BFE4F808390936C004E
S1130390089590916B00E92FF0E0E355FF4F8081C1
S11303A09F5F90936B0008958091640080FD0BC063
S11303B080916400816080936400929A10926B0033
S11303C00E94C9018CB908951F920F920FB60F9223
S11303D011242F933F934F935F936F937F938F9346
S11303E09F93AF93BF93EF93FF9385E08093660051
S11303F08BB190916500892B809365008CB10E942C
S1130400BD01FF91EF91BF91AF919F918F917F912A
S11304106F915F914F913F912F910F900FBE0F906D
S11304201F9018951F920F920FB60F9211242F93BD
S11304303F934F935F936F937F938F939F93AF9368
S1130440BF93EF93FF938091640080FF0EC080916F
S11304506B00893038F0809164008E7F8093640053
S1130460929803C00E94C9018CB9FF91EF91BF918A
S1130470AF919F918F917F916F915F914F913F9138
S11304802F910F900FBE0F901F90189587E089B998
S11304908AB188618AB9579A569A1092650008956C
S11304A0CF92DF92EF92FF920F931F93CF9390918D
S11304B0690080916A00981701F18091640080FDC1
S11304C01CC080916A008F5F8F7099E0899FF00152
S11304D01124EA5AFE4F20E030E09191D901A3554E
S11304E0BF4F9C932F5F3F4F29303105B1F7809365
S11304F06A0010926B000E94D4018091640083FD15
S11305004BC080916C0090916D00891B8F70893075
S113051008F442C0C0916700CF5FCF70EC2EF12C7D
S1130520E9E0CE9F800111240A541F4F6801F9E0CD
S1130530CF0ED11C0E94A901F80181938F01EC1503
S1130540FD05C1F7F9E0CF9FA001112480E090E000
S113055020E0FC01E40FF51FEA54FF4F3081230F24
S1130560019688309105A9F789E08E9DF0018F9D51
S1130570F00D1124EA54FF4F8085281308C08091A0
S11305806400886080936400C093670005C0809114
S11305906400806180936400CF911F910F91FF905C
S11305A0EF90DF90CF900895809168008F5F8F70F7
S11305B029E0829FC00111248A549F4F089580919D
S11305C068008F5F8F70809368000E94A201811180
S11305D005C090916400977F909364000895CF9331
S11305E0DF93FC01909169009F5F9F7089E0989F61
S11305F0E001112420E030E040E0692F70E08081C8
S1130600D901AC0FBD1FAA5ABE4F8C938191480FDC
S11306102F5F3F4F2830310591F789E0869FF00125
S1130620879FF00D1124EA5AFE4F4087909369008A
S1130630DF91CF91089590E08B309105C8F4FC01CF
S1130640E65DFF4F0C9497038FE513C08FE311C051
S11306508FE10FC087E10DC08FE00BC08BE009C0B4
S113066087E007C083E005C082E003C019B808959D
S11306708FE289B9089581E990E00C94EF021F920A
S11306800F920FB60F9211248F9381E080936E0026
S11306908F910F900FBE0F901F901895809164005A
S11306A083FF22C00E94D402E1EAF0E029E02E0F89
S11306B0DC013D91CD0131932E13FACF0E94DF026C
S11306C080916400877F809364000E94B700811149
S11306D00BC00E94D600813039F441E050E060E064
S11306E070E086E00C94A3000895F89481B38660CA
S11306F081BB8AB3806E8ABB0E9446028BE193E081
S113070090936100809360008BE393E09093630087
S11307108093620080E190E00E94680078940E94D7
S113072050020E944E038BB3806E8BBBF8CFEE0F4A
S1130730FF1F0590F491E02D0994DC01CB01FC012D
S1130740E199FECF06C0FFBBEEBBE09A31960DB235
S11307500D9241505040B8F70895262FE199FECFED
S11307609FBB8EBBE09A01970DB2021631F02DBBF0
S11307700FB6F894E29AE19A0FBE0895DC01CB011A
S113078003C02D910E94C90341505040D0F70895F1
S1130790262FE199FECF9FBB8EBB2DBB0FB6F894DD
S11107A0E29AE19A0FBE01960895F894FFCFF5
S9030000FC
