S0180000426F6F746C6F616465722D536C6176652E73726563D9
S11370000C9435380C9452380C9452380C945238F1
S11370100C9452380C9452380C94433C0C945238CF
S11370200C9452380C9452380C9452380C945238B4
S11370300C9452380C940E3A0C9452380C943C3AFA
S11370400C9452380C9452380C9452380C94523894
S11370500C945238663B683B7A3B6A3B6C3B6E3B14
S1137060703B723B743B763B783B11241FBECFE5EB
S1137070D8E0DEBFCDBF11E0A0E6B0E0E8E3FEE774
S113708002C005900D92A036B107D9F723E0A0E61F
S1137090B1E001C01D92A837B207E1F70E94933E08
S11370A00C941A3F0C94003840E020E030E0F901E1
S11370B0E80FF91FE491E427F0E0E05AFF4F408124
S11370C02F5F3F4F2038310591F7E42FE0954E2F85
S11370D050E060E070E084E60C94CD381BBC1ABC30
S11370E019BC18BC89E390E097BD86BD82EA8FBDC8
S11370F08CE18EBD89B7806289BF0895E0916201F9
S1137100F0916301309709F009940895EFE1F2E0FA
S113711080E098E09E0F2191820F9E13FCCF809314
S113712027020895CF93DF93EC0190933902809363
S1137130380245E050E0BC0188E292E00E94DA3E69
S1137140809128028234A9F082E48093280287E0A7
S11371508093290286E080932A0210922B0282E017
S113716080932C0245E050E0BE0188E292E00E9448
S1137170033FE0916001F0916101309719F0809133
S11371802902099580912C0280933A0280912A0267
S113719080932E02DF91CF910895EFE1F2E0909178
S11371A03A02908390912E029183828380913002DF
S11371B0838374836583568347830E9486380C9443
S11371C07E3890912F0280912E02981315C0EFE221
S11371D0F2E080E098E09E0F2191820F9E13FCCF95
S11371E090913702891751F040E050E0BA0181E0F4
S11371F00E94CD3883E0089582E0089580E00895E8
S1137200CF92DF92EF92FF921F93CF93DF931F925F
S1137210CDB7DEB72091330260913402862F90E01F
S1137220A0E0B0E0DC0199278827B22B2091360238
S1137230822B20913502BC01CD01722B60931B027D
S113724070931C0280931D0290931E0210913002D1
S11372501A3009F46AC030F4113009F493C01930BB
S113726041F089C01E3108F48DC01F3F09F48AC063
S113727082C010913202112329F040E050E0BA019B
S113728084E07DC020913102213421F118F42034AE
S113729031F06CC0223461F12C34C1F167C0C0906C
S11372A02802D12CE12CF12C6C157D058E059F054F
S11372B069F0609328021982498120913802309143
S11372C03902C901840F911D0E94F23E40E050E052
S11372D0BA0148C0C0902902D12CE12CF12C6C15C4
S11372E07D058E059F0591F36093290221E01BC063
S11372F0C0902A02D12CE12CF12C6C157D058E0551
S11373009F0521F360932A0222E00DC0C0902C0255
S1137310D12CE12CF12C6C157D058E059F05B1F265
S113732060932C0224E02983C7CF109132021111FB
S1137330A4CF80913102813469F028F48034B1F40F
S1137340409128020CC0823441F08C3479F440918D
S11373502C0205C04091290202C040912A0250E04B
S113736060E070E084E60E94CD380CC040E050E05C
S1137370BA0184E0F8CF40E050E0BA0182E00E9414
S1137380CD3810E0812F0F90DF91CF911F91FF90A6
S1137390EF90DF90CF9008958091680190916901FA
S11373A0891B8F70089590916D0180916E019817DB
S11373B061F090916E019F5F9F70E92FF0E0EC52B5
S11373C0FD4F808190936E01089580E0089590911F
S11373D06D019F5F9F70E92FF0E0EC52FD4F8083B9
S11373E090936D01089590916C01E92FF0E0E55CB4
S11373F0FD4F80819F5F90936C010895809165019A
S113740080FD0BC080916501816080936501929A33
S113741010926C010E94F3398CB908951F920F9257
S11374200FB60F9211242F933F934F935F936F9353
S11374307F938F939F93AF93BF93EF93FF9385E0D5
S1137440809367018BB190916601892B80936601CB
S11374508CB10E94E739FF91EF91BF91AF919F9159
S11374608F917F916F915F914F913F912F910F90E9
S11374700FBE0F901F9018951F920F920FB60F9288
S113748011242F933F934F935F936F937F938F9325
S11374909F93AF93BF93EF93FF938091650180FF18
S11374A00EC080916C01893038F0809165018E7F27
S11374B080936501929803C00E94F3398CB9FF91BF
S11374C0EF91BF91AF919F918F917F916F915F9158
S11374D04F913F912F910F900FBE0F901F901895D1
S11374E087E089B98AB188618AB9579A569A109205
S11374F066010895CF92DF92EF92FF920F931F934C
S1137500CF9390916A0180916B01981701F180915A
S1137510650180FD1CC080916B018F5F8F7099E0C5
S1137520899FF0011124EC51FD4F20E030E091914E
S1137530D901A55CBD4F9C932F5F3F4F2930310586
S1137540B1F780936B0110926C010E94FE39809117
S1137550650183FD4BC080916D0190916E01891B83
S11375608F70893008F442C0C0916801CF5FCF703A
S1137570EC2EF12CE9E0CE9F800111240C5B1D4F11
S11375806801F9E0CF0ED11C0E94D339F801819330
S11375908F01EC15FD05C1F7F9E0CF9FA00111247F
S11375A080E090E020E0FC01E40FF51FEC5BFD4F70
S11375B03081230F019688309105A9F789E08E9DCB
S11375C0F0018F9DF00D1124EC5BFD4F8085281395
S11375D008C080916501886080936501C09368014B
S11375E005C080916501806180936501CF911F91F1
S11375F00F91FF90EF90DF90CF90089580916701F5
S1137600882341F080916701815080936701109233
S11376106401089580916401811107C080916D0116
S113762080936E0181E080936401089580916901E3
S11376308F5F8F7029E0829FC00111248C5B9D4F66
S11376400895809169018F5F8F70809369010E9412
S1137650CC39811105C090916501977F90936501A4
S11376600895CF93DF93FC0190916A019F5F9F700F
S113767089E0989FE001112420E030E040E0692F88
S113768070E08081D901AC0FBD1FAC51BD4F8C930C
S11376908191480F2F5F3F4F2830310591F789E0E2
S11376A0869FF001879FF00D1124EC51FD4F408718
S11376B090936A01DF91CF91089590E08B3091050A
S11376C0C8F4FC01E65DF74C0C94CD3E8FE513C085
S11376D08FE311C08FE10FC087E10DC08FE00BC0B5
S11376E08BE009C087E007C083E005C082E003C0E7
S11376F019B808958FE289B908958FE192E00C9446
S1137700313BE0E0F0E083E080935700E89507B672
S113771000FCFDCFE058FF4FE11590E7F907A1F712
S11377200895CF93DF93C0E0D0E0CE010E94EA3EFB
S11377308F3F21F06FEFCE010E94F23E2196CF3FA2
S113774083E0D80791F7DF91CF910895CF93DF932A
S113775040E050E0A1E0FB0120816E5F7F4FFA0121
S1137760E80FF91FEB012197B88130E03B2B0901A9
S1137770A0935700E89511244E5F5F4F40385105A0
S113778051F725E0FC0120935700E89507B600FC6B
S1137790FDCFDF91CF910895EF92FF920F931F9346
S11377A0CF93DF937C018B01C0E0D0E0F8016191BD
S11377B08F01CE018E0D9F1D0E94F23E2196C0388E
S11377C0D105A1F7DF91CF911F910F91FF90EF9019
S11377D00895FC01449150E060E070E0742F662746
S11377E055274427319634913196249131968491CA
S11377F0632B482B522B84E60C94CD38CF92DF9226
S1137800EF92FF921F93CF93DF93EC010E94EA3E25
S1137810C82ED12CE12CF12CFC2CEE24DD24CC241C
S1137820CE0101960E94EA3EE82ACE0102960E9409
S1137830EA3E182FCE0103960E94EA3EB701A60144
S1137840482B512B84E6DF91CF911F91FF90EF904D
S1137850DF90CF900C94CD388F779927FC01E358B3
S1137860FE4FAFE2B2E014968C9114978083159684
S11378708C911597818316968C911697828317960F
S11378808C91838308951F920F920FB60F92112447
S11378908F9381E080936F018F910F900FBE0F90B3
S11378A01F90189580916F01882321F010926F0129
S11378B00C94FE3A0895CF93DF938091650183FF82
S11378C022C20E94163BEFE2F2E029E02E0FDC0117
S11378D03D91CD0131932E13FACF0E94213B80912B
S11378E06501877F809365010E94E13881110BC295
S11378F00E940039843109F49AC008F03FC08E30E8
S113790009F470C0B8F48B3009F462C030F48130EB
S113791009F0F9C180937A018FC08C3009F45BC0FF
S11379208D3009F0F0C10E94913B4DE050E060E0E1
S113793070E0E4C1813109F463C048F48F3009F484
S11379405AC0803109F0DFC1E0E0F0E05BC0823171
S113795009F461C0833109F0D6C182E095E9AEE152
S1137960B0E08093740390937503A0937603B0936F
S1137970770342E055E96EE170E0C0C1893109F452
S113798048C160F4863109F45CC008F455C08731FD
S113799009F46FC0883109F4D4C0B5C18C3109F43D
S11379A0A4C138F48A3109F46EC18B3109F483C15E
S11379B0AAC18D3109F49EC18F3F09F0A4C14FEFD4
S11379C050E060E070E084E60E94CD3874CF9BC143
S11379D0E1E0F0E017C00E94813B4CE050E060E041
S11379E070E08CC10E94813B0E94913B4EE050E0CC
S11379F060E070E083C14FE050E060E070E015C0EB
S1137A00E3E0F0E089E080935700E4914E2F50E0EA
S1137A1060E070E073C1E2E0F0E089E08093570039
S1137A20E4914E2F50E060E070E086E068C140E0F1
S1137A305DE760E070E062C141E050E060E070E06A
S1137A405DC14091310250E0542F442780913202AD
S1137A509A01282BC90190937901809378018C3F76
S1137A603FE6930720F4DF91CF910C945438AC0196
S1137A70CDC04091310250E0542F4427809132020E
S1137A80EA01C82BD0937901C09378019E01207834
S1137A903093770120937601CC3F8FE6D80708F026
S1137AA0B4C080917401909175012817390771F45D
S1137AB0CE010E942C3C81E08093730147E150E0A9
S1137AC060E070E084E60E94CD3837C020917301F5
S1137AD02223C9F06DE771E00E94A63B40E850E024
S1137AE06FEF70E08DE791E00E94D33E80917801C2
S1137AF0909179010E942C3C409178015091790138
S1137B0060E070E00FC040E850E06FEF70E08DE798
S1137B1091E00E94D33ECE010E942C3C47E150E00C
S1137B2060E070E084E60E94CD3880917801909105
S1137B307901909375018093740181E080937001C1
S1137B40E2C04091310250E0542F44278091320228
S1137B50EA01C82BD0937901C09378019E01207863
S1137B603093770120937601CC3FAFEFDA0708F02A
S1137B704CC080917401909175012817390739F42C
S1137B80CE010E942C3C81E08093720133C020918D
S1137B907201222321F16DE771E00E94CC3B40E8A1
S1137BA050E06FEF70E08DE791E00E94D33E80914A
S1137BB07801909179010E942C3C40917801509178
S1137BC0790160E070E084E60E94CD38809178010C
S1137BD090917901909375018093740112C040E8EB
S1137BE050E06FEF70E08DE791E00E94D33ECE014C
S1137BF00E942C3C48E150E060E070E084E60E9482
S1137C00CD3881E0809371017EC0AE0160E070E008
S1137C106AC080917001882359F06DE771E080910A
S1137C207401909175010E94A63B109273010EC0DD
S1137C3080917101882381F06DE771E08091740176
S1137C40909175010E94CC3B1092720149E150E081
S1137C5060E070E084E604C040E050E0BA0184E0F3
S1137C600E94CD3840E850E06FEF70E08DE791E07E
S1137C700E94D33E10927501109274011092770104
S1137C801092760140C08091310290E0982F8827AD
S1137C9020913202822B90937901809378018C3F5A
S1137CA0BFE69B0720F4DF91CF910C94E93B40E0C1
S1137CB050E0BA0118C08091310290E0982F8827D3
S1137CC020913202822B90937901809378018C3F2A
S1137CD02FEF920720F4DF91CF910C94FE3B4BE100
S1137CE050E060E070E084E00AC040E850E060E00A
S1137CF070E004C040E051E060E070E084E6DF91B1
S1137D00CF910C94CD38DF91CF91089581E08BBF52
S1137D1082E08BBF089540E850E06FEF70E08DE79C
S1137D2091E00C94D33E0E94863EF89481B3866021
S1137D3081BB0E946E380E94703A8DE59BE390935C
S1137D406101809360018DE79BE3909363018093CD
S1137D50620180E190E00E9492380E948B3E789408
S1137D600E94523C0E947A3A0E945B3C80917B01C3
S1137D7090917C018A3F910530F4019690937C01A7
S1137D8080937B01EDCF80917A018111E9CF10922C
S1137D907C0110927B01C7CFE3CFEE0FFF1F05904C
S1137DA0F491E02D0994DC0101C06D9341505040E1
S1137DB0E0F70895DC01CB01FC01E199FECF06C098
S1137DC0FFBBEEBBE09A31960DB20D92415050408C
S1137DD0B8F70895E199FECF9FBB8EBBE09A99272F
S1137DE08DB30895262FE199FECF9FBB8EBBE09AF9
S1137DF001970DB2021631F02DBB0FB6F894E29A3A
S1137E00E19A0FBE0895DC01CB0103C02D910E94BD
S1137E100E3F41505040D0F70895262FE199FECFF0
S1137E209FBB8EBB2DBB0FB6F894E29AE19A0FBEAE
S10B7E3001960895F894FFCFB8
S1137E3800809717B9392EAEE56572F25CDCCB4B3E
S1137E485DDDCA4AE46473F3B8382FAF018196162E
S1137E58BA3A2DAD038394145FDFC848E66671F11E
S1137E68E76770F05EDEC94902829515BB3B2CAC0E
S1137E78E36374F45ADACD4D06869111BF3F28A8FE
S1137E88BE3E29A9078790105BDBCC4CE26275F5EE
S1137E9859D9CE4EE06077F7BC3C2BAB05859212DE
S1137EA804849313BD3D2AAAE16176F658D8CF4FCE
S1137EB851D1C646E8687FFFB43423A30D8D9A1ABE
S1137EC80C8C9B1BB53522A2E9697EFE50D0C747AE
S1137ED8EB6B7CFC52D2C5450E8E9919B73720A09E
S1137EE8B63621A10F8F981853D3C444EA6A7DFD8E
S1137EF8B23225A50B8B9C1C57D7C040EE6E79F97E
S1137F08EF6F78F856D6C1410A8A9D1DB33324A46D
S1137F1808889F1FB13126A6ED6D7AFA54D4C3435D
S1137F2855D5C242EC6C7BFBB03027A709899E1E4D
S90370008C
