S0180000426F6F746C6F616465722D536C6176652E73726563D9
S11370000C9435380C9452380C9452380C945238F1
S11370100C9452380C9452380C94003C0C94523812
S11370200C9452380C9452380C9452380C945238B4
S11370300C9452380C940E3A0C9452380C943C3AFA
S11370400C9452380C9452380C9452380C94523894
S11370500C945238663B683B7A3B6A3B6C3B6E3B14
S1137060703B723B743B763B783B11241FBECFE5EB
S1137070D8E0DEBFCDBF11E0A0E6B0E0EEE5FDE76D
S113708002C005900D92A036B107D9F723E0A0E61F
S1137090B1E001C01D92A637B207E1F70E943C3E61
S11370A00C94AD3E0C94003840E020E030E0F9014F
S11370B0E80FF91FE491E427F0E0E05AFF4F408124
S11370C02F5F3F4F2038310591F7E42FE0954E2F85
S11370D050E060E070E084E60C94CD381BBC1ABC30
S11370E019BC18BC89E390E097BD86BD82EA8FBDC8
S11370F08CE18EBD89B7806289BF0895E0916201F9
S1137100F0916301309709F009940895EDE1F2E0FC
S113711080E098E09E0F2191820F9E13FCCF809314
S113712025020895CF93DF93EC0190933702809367
S1137130360245E050E0BC0186E292E00E946D3EDA
S1137140809126028134A9F082E48093260284E0AF
S11371508093270286E0809328021092290282E01D
S113716080932A0245E050E0BE0186E292E00E944C
S1137170963EE0916001F0916101309719F08091A1
S11371802702099580912A0280933802809128026F
S113719080932C02DF91CF910895EDE1F2E090917C
S11371A03802908390912C029183828380912E02E5
S11371B0838374836583568347830E9486380C9443
S11371C07E3890912D0280912C02981315C0EDE227
S11371D0F2E080E098E09E0F2191820F9E13FCCF95
S11371E090913502891751F040E050E0BA0181E0F6
S11371F00E94CD3883E0089582E0089580E00895E8
S1137200CF92DF92EF92FF921F93CF93DF931F925F
S1137210CDB7DEB72091310260913202862F90E023
S1137220A0E0B0E0DC0199278827B22B209134023A
S1137230822B20913302BC01CD01722B6093190281
S113724070931A0280931B0290931C0210912E02D9
S11372501A3009F46AC030F4113009F493C01930BB
S113726041F089C01C3108F48DC01F3F09F48AC065
S113727082C010913002112329F040E050E0BA019D
S113728084E07DC020912F02213421F118F42034B0
S113729031F06CC0223461F12C34C1F167C0C0906C
S11372A02602D12CE12CF12C6C157D058E059F0551
S11372B069F0609326021982498120913602309147
S11372C03702C901840F911D0E94853E40E050E0C1
S11372D0BA0148C0C0902702D12CE12CF12C6C15C6
S11372E07D058E059F0591F36093270221E01BC065
S11372F0C0902802D12CE12CF12C6C157D058E0553
S11373009F0521F36093280222E00DC0C0902A0259
S1137310D12CE12CF12C6C157D058E059F05B1F265
S113732060932A0224E02983C7CF109130021111FF
S1137330A4CF80912F02813469F028F48034B1F411
S1137340409126020CC0823441F08C3479F440918F
S11373502A0205C04091270202C04091280250E051
S113736060E070E084E60E94CD380CC040E050E05C
S1137370BA0184E0F8CF40E050E0BA0182E00E9414
S1137380CD3810E0812F0F90DF91CF911F91FF90A6
S1137390EF90DF90CF9008958091680190916901FA
S11373A0891B8F70089590916D0180916E019817DB
S11373B061F090916E019F5F9F70E92FF0E0EE52B3
S11373C0FD4F808190936E01089580E0089590911F
S11373D06D019F5F9F70E92FF0E0EE52FD4F8083B7
S11373E090936D01089590916C01E92FF0E0E75CB2
S11373F0FD4F80819F5F90936C010895809165019A
S113740080FD0BC080916501816080936501929A33
S113741010926C010E94F3398CB908951F920F9257
S11374200FB60F9211242F933F934F935F936F9353
S11374307F938F939F93AF93BF93EF93FF9385E0D5
S1137440809367018BB190916601892B80936601CB
S11374508CB10E94E739FF91EF91BF91AF919F9159
S11374608F917F916F915F914F913F912F910F90E9
S11374700FBE0F901F9018951F920F920FB60F9288
S113748011242F933F934F935F936F937F938F9325
S11374909F93AF93BF93EF93FF938091650180FF18
S11374A00EC080916C01893038F0809165018E7F27
S11374B080936501929803C00E94F3398CB9FF91BF
S11374C0EF91BF91AF919F918F917F916F915F9158
S11374D04F913F912F910F900FBE0F901F901895D1
S11374E087E089B98AB188618AB9579A569A109205
S11374F066010895CF92DF92EF92FF920F931F934C
S1137500CF9390916A0180916B01981701F180915A
S1137510650180FD1CC080916B018F5F8F7099E0C5
S1137520899FF0011124EE51FD4F20E030E091914C
S1137530D901A75CBD4F9C932F5F3F4F2930310584
S1137540B1F780936B0110926C010E94FE39809117
S1137550650183FD4BC080916D0190916E01891B83
S11375608F70893008F442C0C0916801CF5FCF703A
S1137570EC2EF12CE9E0CE9F800111240E5B1D4F0F
S11375806801F9E0CF0ED11C0E94D339F801819330
S11375908F01EC15FD05C1F7F9E0CF9FA00111247F
S11375A080E090E020E0FC01E40FF51FEE5BFD4F6E
S11375B03081230F019688309105A9F789E08E9DCB
S11375C0F0018F9DF00D1124EE5BFD4F8085281393
S11375D008C080916501886080936501C09368014B
S11375E005C080916501806180936501CF911F91F1
S11375F00F91FF90EF90DF90CF90089580916701F5
S1137600882341F080916701815080936701109233
S11376106401089580916401811107C080916D0116
S113762080936E0181E080936401089580916901E3
S11376308F5F8F7029E0829FC00111248E5B9D4F64
S11376400895809169018F5F8F70809369010E9412
S1137650CC39811105C090916501977F90936501A4
S11376600895CF93DF93FC0190916A019F5F9F700F
S113767089E0989FE001112420E030E040E0692F88
S113768070E08081D901AC0FBD1FAE51BD4F8C930A
S11376908191480F2F5F3F4F2830310591F789E0E2
S11376A0869FF001879FF00D1124EE51FD4F408716
S11376B090936A01DF91CF91089590E08B3091050A
S11376C0C8F4FC01E65DF74C0C94603E8FE513C0F2
S11376D08FE311C08FE10FC087E10DC08FE00BC0B5
S11376E08BE009C087E007C083E005C082E003C0E7
S11376F019B808958FE289B908958DE192E00C9448
S1137700313BE0E0F0E083E080935700E89507B672
S113771000FCFDCFE058FF4FE11590E7F907A1F712
S11377200895CF93DF93C0E0D0E0CE010E947D3E68
S11377308F3F21F06FEFCE010E94853E2196CF3F0F
S113774083E0D80791F7DF91CF910895CF93DF932A
S113775040E050E0A1E0FB0120816E5F7F4FFA0121
S1137760E80FF91FEB012197B88130E03B2B0901A9
S1137770A0935700E89511244E5F5F4F40385105A0
S113778051F725E0FC0120935700E89507B600FC6B
S1137790FDCFDF91CF910895EF92FF920F931F9346
S11377A0CF93DF937C018B01C0E0D0E0F8016191BD
S11377B08F01CE018E0D9F1D0E94853E2196C038FB
S11377C0D105A1F7DF91CF911F910F91FF90EF9019
S11377D008958F779927FC01E558FE4FADE2B2E09A
S11377E014968C911497808315968C9115978183A8
S11377F016968C911697828317968C91838308959D
S11378001F920F920FB60F9211248F9381E08093F1
S11378106F018F910F900FBE0F901F90189580915C
S11378206F01882321F010926F010C94FE3A0895A1
S1137830CF93DF938091650183FF0EC20E94163BB4
S1137840EDE2F2E029E02E0FDC013D91CD01319310
S11378502E13FACF0E94213B80916501877F80938C
S113786065010E94E1388111F7C10E94003983311A
S113787009F47AC078F58E3009F45AC0B8F48B3024
S113788009F44CC030F4813009F0E6C180937A01E8
S113789081C08C3009F445C08D3009F0DDC10E94EF
S11378A0913B4DE050E060E070E0D1C1803109F4DB
S11378B04DC008F446C0813109F44BC0823109F04F
S11378C0CBC1E2E0F0E089E080935700E4914E2FD1
S11378D050E03EC1883109F4D6C060F4853109F422
S11378E059C008F452C0863109F459C0873109F4EB
S11378F066C0B2C18A3109F460C108F42CC18B316D
S113790009F493C18F3F09F0A7C14FEF50E060E045
S113791070E084E60E94CD388BCF9EC1E1E0F0E0B8
S11379201AC00E94813B4CE050E060E070E08FC1DF
S11379300E94813B0E94913B4EE050E060E070E089
S113794086C14FE050E060E070E06DC1E0E0F0E03F
S113795002C0E3E0F0E089E080935700E4914E2F09
S113796050E060E070E073C182E095E9AEE1B0E020
S11379708093720390937303A0937403B09375037D
S113798042E055E96EE170E062C140E05DE760E02D
S113799070E05DC141E050E060E070E058C180916A
S11379A02F0290E0982F882720913002822B909309
S11379B0790180937801DF91CF910C9454384091F0
S11379C02F0250E0542F442780913002EA01C82B43
S11379D0D0937901C09378019E0120783093770188
S11379E020937601CC3FBFE6DB0708F0B0C080915E
S11379F07401909175012817390739F4CE010E945A
S1137A00E93B81E08093730133C020917301222309
S1137A1021F16BE771E00E94A63B40E850E06FEF74
S1137A2070E08BE791E00E94663E8091780190912E
S1137A3079010E94E93B409178015091790160E01D
S1137A4070E084E60E94CD388091780190917901AC
S1137A50909375018093740112C040E850E06FEF79
S1137A6070E08BE791E00E94663ECE010E94E93B04
S1137A7047E150E060E070E084E60E94CD3881E0A8
S1137A8080937001E9C040912F0250E0542F4427A5
S1137A9080913002EA01C82BD0937901C093780118
S1137AA09E0120783093770120937601CC3F8FEFAD
S1137AB0D80708F04CC08091740190917501281783
S1137AC0390739F4CE010E94E93B81E080937201C9
S1137AD033C020917201222321F16BE771E00E94EF
S1137AE0CC3B40E850E06FEF70E08BE791E00E9400
S1137AF0663E80917801909179010E94E93B409122
S1137B0078015091790160E070E084E60E94CD38FC
S1137B10809178019091790190937501809374011B
S1137B2012C040E850E06FEF70E08BE791E00E94F4
S1137B30663ECE010E94E93B48E150E060E070E01F
S1137B4084E60E94CD3881E08093710185C0AE0146
S1137B5060E070E068C080917001882359F06BE7A1
S1137B6071E080917401909175010E94A63B10927E
S1137B7073010EC080917101882381F06BE771E07D
S1137B8080917401909175010E94CC3B1092720116
S1137B9049E150E060E070E084E604C040E050E079
S1137BA0BA0186E60E94CD381092750110927401D4
S1137BB010927701109276014FC040912F0250E04D
S1137BC0542F442780913002482B509379014093DD
S1137BD0780160E070E084E60E94CD38E09178019D
S1137BE0F0917901EC3FAFE6FA07D0F4E4914E2F1F
S1137BF050E060E070E0742F66275527442784E640
S1137C000E94CD38E0917801F0917901E4914E2FF2
S1137C1050E0F42FEE27AF01FF0F660B770B17C070
S1137C2040E050E0BA0186E613C080912F0290E054
S1137C30982F882720913002822B9093790180938A
S1137C4078018C3F9F4F60F740E050E0BA0184E632
S1137C50DF91CF910C94CD38DF91CF91089581E0DD
S1137C608BBF82E08BBF089540E850E06FEF70E077
S1137C708BE791E00C94663E0E942F3EF89481B30A
S1137C80866081BB0E946E380E94703A8DE59BE34A
S1137C9090936101809360018DE79BE3909363016E
S1137CA08093620180E190E00E9492380E94343E09
S1137CB078940E940F3C0E947A3A0E94183CF9CFB3
S1137CC0EE0FFF1F0590F491E02D0994DC0101C033
S1137CD06D9341505040E0F70895DC01CB01FC0165
S1137CE0E199FECF06C0FFBBEEBBE09A31960DB220
S1137CF00D9241505040B8F70895E199FECF9FBBD3
S1137D008EBBE09A99278DB30895262FE199FECF73
S1137D109FBB8EBBE09A01970DB2021631F02DBBCA
S1137D200FB6F894E29AE19A0FBE0895DC01CB01F4
S1137D3003C02D910E94A13E41505040D0F70895B8
S1137D40262FE199FECF9FBB8EBB2DBB0FB6F894B7
S1117D50E29AE19A0FBE01960895F894FFCFCF
S1137D5E00809717B9392EAEE56572F25CDCCB4B19
S1137D6E5DDDCA4AE46473F3B8382FAF0181961609
S1137D7EBA3A2DAD038394145FDFC848E66671F1F9
S1137D8EE76770F05EDEC94902829515BB3B2CACE9
S1137D9EE36374F45ADACD4D06869111BF3F28A8D9
S1137DAEBE3E29A9078790105BDBCC4CE26275F5C9
S1137DBE59D9CE4EE06077F7BC3C2BAB05859212B9
S1137DCE04849313BD3D2AAAE16176F658D8CF4FA9
S1137DDE51D1C646E8687FFFB43423A30D8D9A1A99
S1137DEE0C8C9B1BB53522A2E9697EFE50D0C74789
S1137DFEEB6B7CFC52D2C5450E8E9919B73720A079
S1137E0EB63621A10F8F981853D3C444EA6A7DFD68
S1137E1EB23225A50B8B9C1C57D7C040EE6E79F958
S1137E2EEF6F78F856D6C1410A8A9D1DB33324A448
S1137E3E08889F1FB13126A6ED6D7AFA54D4C34338
S1137E4E55D5C242EC6C7BFBB03027A709899E1E28
S90370008C
